{
  "contractName": "Staking",
  "abi": [
    {
      "anonymous": false,
      "inputs": [
        {
          "indexed": false,
          "internalType": "address",
          "name": "staker",
          "type": "address"
        },
        {
          "indexed": false,
          "internalType": "uint256",
          "name": "reward",
          "type": "uint256"
        }
      ],
      "name": "Compounded",
      "type": "event"
    },
    {
      "anonymous": false,
      "inputs": [
        {
          "indexed": false,
          "internalType": "address",
          "name": "staker",
          "type": "address"
        },
        {
          "indexed": false,
          "internalType": "uint256",
          "name": "stake",
          "type": "uint256"
        }
      ],
      "name": "Staked",
      "type": "event"
    },
    {
      "inputs": [],
      "name": "rewardPerBlock",
      "outputs": [
        {
          "internalType": "uint256",
          "name": "",
          "type": "uint256"
        }
      ],
      "stateMutability": "view",
      "type": "function"
    },
    {
      "inputs": [
        {
          "internalType": "address",
          "name": "",
          "type": "address"
        }
      ],
      "name": "stakers",
      "outputs": [
        {
          "internalType": "bool",
          "name": "",
          "type": "bool"
        }
      ],
      "stateMutability": "view",
      "type": "function"
    },
    {
      "inputs": [
        {
          "internalType": "address",
          "name": "",
          "type": "address"
        }
      ],
      "name": "stakes",
      "outputs": [
        {
          "internalType": "uint256",
          "name": "",
          "type": "uint256"
        }
      ],
      "stateMutability": "view",
      "type": "function"
    },
    {
      "inputs": [],
      "name": "totalReward",
      "outputs": [
        {
          "internalType": "uint256",
          "name": "",
          "type": "uint256"
        }
      ],
      "stateMutability": "view",
      "type": "function"
    },
    {
      "inputs": [],
      "name": "totalStake",
      "outputs": [
        {
          "internalType": "uint256",
          "name": "",
          "type": "uint256"
        }
      ],
      "stateMutability": "view",
      "type": "function"
    },
    {
      "inputs": [
        {
          "internalType": "uint256",
          "name": "stakeAmount",
          "type": "uint256"
        }
      ],
      "name": "stake",
      "outputs": [],
      "stateMutability": "nonpayable",
      "type": "function"
    },
    {
      "inputs": [],
      "name": "unstake",
      "outputs": [],
      "stateMutability": "nonpayable",
      "type": "function"
    },
    {
      "inputs": [],
      "name": "compound",
      "outputs": [],
      "stateMutability": "nonpayable",
      "type": "function"
    },
    {
      "inputs": [
        {
          "internalType": "uint256",
          "name": "_rewardPerBlock",
          "type": "uint256"
        }
      ],
      "name": "setRewardPerBlock",
      "outputs": [],
      "stateMutability": "nonpayable",
      "type": "function"
    }
  ],
  "bytecode": "0x608060405234801561001057600080fd5b5061050c806100206000396000f3fe608060405234801561001057600080fd5b50600436106100935760003560e01c80638b0e9f3f116100665780638b0e9f3f146100e75780639168ae72146100f0578063a694fc3a14610123578063bb872b4a14610136578063f69e20461461014957600080fd5b806316934fc4146100985780632def6620146100cb578063750142e6146100d55780638ae39cac146100de575b600080fd5b6100b86100a6366004610429565b60006020819052908152604090205481565b6040519081526020015b60405180910390f35b6100d3610151565b005b6100b860035481565b6100b860045481565b6100b860025481565b6101136100fe366004610429565b60016020526000908152604090205460ff1681565b60405190151581526020016100c2565b6100d3610131366004610459565b6101fd565b6100d3610144366004610459565b600455565b6100d361031f565b3360009081526001602052604090205460ff166101b15760405162461bcd60e51b815260206004820152601960248201527814d95b99195c881a185cc81b9bdd081cdd185ad959081e595d603a1b60448201526064015b60405180910390fd5b3360009081526020819052604081205460028054919290916101d4908490610488565b90915550503360009081526020818152604080832083905560019091529020805460ff19169055565b6000811161024d5760405162461bcd60e51b815260206004820152601d60248201527f43616e6e6f74207374616b652030206f72206c65737320746f6b656e7300000060448201526064016101a8565b3360009081526001602052604090205460ff16156102a55760405162461bcd60e51b815260206004820152601560248201527414d95b99195c88185b1c9958591e481cdd185ad959605a1b60448201526064016101a8565b336000908152602081815260408083208490556001918290528220805460ff19169091179055600280548392906102dd90849061049f565b909155505060408051338152602081018390527f9e71bc8eea02a63969f509818f2dafb9254532904319f9dbda79b67bd34a5f3d91015b60405180910390a150565b3360009081526001602052604090205460ff1661037a5760405162461bcd60e51b815260206004820152601960248201527814d95b99195c881a185cc81b9bdd081cdd185ad959081e595d603a1b60448201526064016101a8565b600454336000908152602081905260408120549091610398916104b7565b336000908152602081905260408120805492935083929091906103bc90849061049f565b9250508190555080600260008282546103d5919061049f565b9250508190555080600360008282546103ee919061049f565b909155505060408051338152602081018390527fc16de066392da7e40ceccb739c331fc48a2e76bf147449613c48023d960eec329101610314565b60006020828403121561043b57600080fd5b81356001600160a01b038116811461045257600080fd5b9392505050565b60006020828403121561046b57600080fd5b5035919050565b634e487b7160e01b600052601160045260246000fd5b60008282101561049a5761049a610472565b500390565b600082198211156104b2576104b2610472565b500190565b60008160001904831182151516156104d1576104d1610472565b50029056fea26469706673582212208800f428c251efd4ac28fb9d51f5780b94897abeddddc091dc0b97c88c806df464736f6c634300080d0033",
  "immutableReferences": {},
  "source": "// SPDX-License-Identifier: MIT\r\npragma solidity >=0.7.0 < 0.9.0;\r\npragma abicoder v2;\r\n\r\ncontract Staking {\r\n    mapping(address => uint) public stakes;\r\n    mapping(address => bool) public stakers;\r\n    uint public totalStake;\r\n    uint public totalReward;\r\n    uint public rewardPerBlock;\r\n\r\n    event Staked(address staker, uint stake);\r\n    event Compounded(address staker, uint reward);\r\n\r\n    function stake(uint stakeAmount) public {\r\n        require(stakeAmount > 0, \"Cannot stake 0 or less tokens\");\r\n        require(!stakers[msg.sender], \"Sender already staked\");\r\n        stakes[msg.sender] = stakeAmount;\r\n        stakers[msg.sender] = true;\r\n        totalStake += stakeAmount;\r\n        emit Staked(msg.sender, stakeAmount);\r\n    }\r\n\r\n    function unstake() public {\r\n        require(stakers[msg.sender], \"Sender has not staked yet\");\r\n        totalStake -= stakes[msg.sender];\r\n        delete stakes[msg.sender];\r\n        stakers[msg.sender] = false;\r\n    }\r\n\r\n    function compound() public {\r\n        require(stakers[msg.sender], \"Sender has not staked yet\");\r\n        uint reward = stakes[msg.sender] * rewardPerBlock;\r\n        stakes[msg.sender] += reward;\r\n        totalStake += reward;\r\n        totalReward += reward;\r\n        emit Compounded(msg.sender, reward);\r\n    }\r\n\r\n    function setRewardPerBlock(uint _rewardPerBlock) public {\r\n        require(msg.sender == msg.sender, \"Only owner can set reward per block\");\r\n        rewardPerBlock = _rewardPerBlock;\r\n    }\r\n}\r\n",
  "sourcePath": "E:\\The-FastWay\\contracts\\Staking.sol",
  "compiler": {
    "name": "solc",
    "version": "0.8.13+commit.abaa5c0e.Emscripten.clang"
  },
  "schemaVersion": "3.4.6",
  "updatedAt": "2023-01-26T12:29:04.032Z",
  "devdoc": {
    "kind": "dev",
    "methods": {},
    "version": 1
  },
  "userdoc": {
    "kind": "user",
    "methods": {},
    "version": 1
  }
}